{
  "contractName": "Authenticity",
  "abi": [
    {
      "inputs": [],
      "stateMutability": "nonpayable",
      "type": "constructor"
    },
    {
      "inputs": [],
      "name": "info",
      "outputs": [
        {
          "internalType": "string",
          "name": "",
          "type": "string"
        }
      ],
      "stateMutability": "view",
      "type": "function",
      "constant": true
    },
    {
      "inputs": [],
      "name": "owner",
      "outputs": [
        {
          "internalType": "address",
          "name": "",
          "type": "address"
        }
      ],
      "stateMutability": "view",
      "type": "function",
      "constant": true
    },
    {
      "inputs": [
        {
          "internalType": "address",
          "name": "newOwner",
          "type": "address"
        }
      ],
      "name": "changeOwner",
      "outputs": [],
      "stateMutability": "nonpayable",
      "type": "function"
    },
    {
      "inputs": [
        {
          "internalType": "string",
          "name": "message",
          "type": "string"
        }
      ],
      "name": "inputInfo",
      "outputs": [],
      "stateMutability": "nonpayable",
      "type": "function"
    }
  ],
  "bytecode": "0x608060405234801561001057600080fd5b50336000806101000a81548173ffffffffffffffffffffffffffffffffffffffff021916908373ffffffffffffffffffffffffffffffffffffffff1602179055506107be806100606000396000f3fe608060405234801561001057600080fd5b506004361061004c5760003560e01c8063370158ea146100515780638da5cb5b1461006f578063a6f9dae11461008d578063c972ae26146100a9575b600080fd5b6100596100c5565b604051610066919061042c565b60405180910390f35b610077610153565b604051610084919061048f565b60405180910390f35b6100a760048036038101906100a291906104ea565b610177565b005b6100c360048036038101906100be919061064c565b610248565b005b600180546100d2906106c4565b80601f01602080910402602001604051908101604052809291908181526020018280546100fe906106c4565b801561014b5780601f106101205761010080835404028352916020019161014b565b820191906000526020600020905b81548152906001019060200180831161012e57829003601f168201915b505050505081565b60008054906101000a900473ffffffffffffffffffffffffffffffffffffffff1681565b60008054906101000a900473ffffffffffffffffffffffffffffffffffffffff1673ffffffffffffffffffffffffffffffffffffffff163373ffffffffffffffffffffffffffffffffffffffff1614610205576040517f08c379a00000000000000000000000000000000000000000000000000000000081526004016101fc90610768565b60405180910390fd5b806000806101000a81548173ffffffffffffffffffffffffffffffffffffffff021916908373ffffffffffffffffffffffffffffffffffffffff16021790555050565b60008054906101000a900473ffffffffffffffffffffffffffffffffffffffff1673ffffffffffffffffffffffffffffffffffffffff163373ffffffffffffffffffffffffffffffffffffffff16146102d6576040517f08c379a00000000000000000000000000000000000000000000000000000000081526004016102cd90610768565b60405180910390fd5b80600190805190602001906102ec9291906102f0565b5050565b8280546102fc906106c4565b90600052602060002090601f01602090048101928261031e5760008555610365565b82601f1061033757805160ff1916838001178555610365565b82800160010185558215610365579182015b82811115610364578251825591602001919060010190610349565b5b5090506103729190610376565b5090565b5b8082111561038f576000816000905550600101610377565b5090565b600081519050919050565b600082825260208201905092915050565b60005b838110156103cd5780820151818401526020810190506103b2565b838111156103dc576000848401525b50505050565b6000601f19601f8301169050919050565b60006103fe82610393565b610408818561039e565b93506104188185602086016103af565b610421816103e2565b840191505092915050565b6000602082019050818103600083015261044681846103f3565b905092915050565b600073ffffffffffffffffffffffffffffffffffffffff82169050919050565b60006104798261044e565b9050919050565b6104898161046e565b82525050565b60006020820190506104a46000830184610480565b92915050565b6000604051905090565b600080fd5b600080fd5b6104c78161046e565b81146104d257600080fd5b50565b6000813590506104e4816104be565b92915050565b600060208284031215610500576104ff6104b4565b5b600061050e848285016104d5565b91505092915050565b600080fd5b600080fd5b7f4e487b7100000000000000000000000000000000000000000000000000000000600052604160045260246000fd5b610559826103e2565b810181811067ffffffffffffffff8211171561057857610577610521565b5b80604052505050565b600061058b6104aa565b90506105978282610550565b919050565b600067ffffffffffffffff8211156105b7576105b6610521565b5b6105c0826103e2565b9050602081019050919050565b82818337600083830152505050565b60006105ef6105ea8461059c565b610581565b90508281526020810184848401111561060b5761060a61051c565b5b6106168482856105cd565b509392505050565b600082601f83011261063357610632610517565b5b81356106438482602086016105dc565b91505092915050565b600060208284031215610662576106616104b4565b5b600082013567ffffffffffffffff8111156106805761067f6104b9565b5b61068c8482850161061e565b91505092915050565b7f4e487b7100000000000000000000000000000000000000000000000000000000600052602260045260246000fd5b600060028204905060018216806106dc57607f821691505b602082108114156106f0576106ef610695565b5b50919050565b7f4f6e6c7920746865206f776e65722063616e20706572666f726d20636572746160008201527f696e2066756e6374696f6e730000000000000000000000000000000000000000602082015250565b6000610752602c8361039e565b915061075d826106f6565b604082019050919050565b6000602082019050818103600083015261078181610745565b905091905056fea264697066735822122055ba34bf5dd3868d151050553b2f89e72de93d1b973ab58bd9c999a85b19e94464736f6c634300080a0033",
  "immutableReferences": {},
  "source": "// SPDX-License-Identifier: MIT\npragma solidity >=0.4.22 <0.9.0;\n\ncontract Authenticity {\n  address public owner;\n  string public info;\n  constructor() public {\n    owner = msg.sender;\n  }\n\n//Ensures that message sender is the owner\n    modifier onlyOwner(){\n        require(msg.sender==owner, \"Only the owner can perform certain functions\");\n        _;\n    }\n\n\n//Allows ownership to be transferred\n    function changeOwner(address newOwner) public onlyOwner(){\n        owner = newOwner;\n    }\n\n    function inputInfo(string memory message) public onlyOwner{\n        info = message;\n    }\n}\n\n",
  "sourcePath": "C:\\Users\\RUBIES\\Documents\\My_projects\\Blockchain\\My project\\contracts\\Authenticity.sol",
  "compiler": {
    "name": "solc",
    "version": "0.8.10+commit.fc410830.Emscripten.clang"
  },
  "schemaVersion": "3.4.4",
  "updatedAt": "2022-05-07T07:01:22.395Z",
  "networkType": "ethereum",
  "devdoc": {
    "kind": "dev",
    "methods": {},
    "version": 1
  },
  "userdoc": {
    "kind": "user",
    "methods": {},
    "version": 1
  }
}